{
  "contractName": "Au_CA",
  "abi": [
    {
      "inputs": [],
      "stateMutability": "nonpayable",
      "type": "constructor"
    },
    {
      "inputs": [
        {
          "internalType": "string",
          "name": "id",
          "type": "string"
        },
        {
          "internalType": "string",
          "name": "cert_hash",
          "type": "string"
        }
      ],
      "name": "store",
      "outputs": [],
      "stateMutability": "nonpayable",
      "type": "function"
    },
    {
      "inputs": [
        {
          "internalType": "string",
          "name": "id",
          "type": "string"
        }
      ],
      "name": "query",
      "outputs": [
        {
          "internalType": "string",
          "name": "",
          "type": "string"
        }
      ],
      "stateMutability": "view",
      "type": "function",
      "constant": true
    },
    {
      "inputs": [
        {
          "internalType": "string",
          "name": "id",
          "type": "string"
        },
        {
          "internalType": "string",
          "name": "cert_hash",
          "type": "string"
        }
      ],
      "name": "revoke",
      "outputs": [],
      "stateMutability": "nonpayable",
      "type": "function"
    }
  ],
  "bytecode": "0x608060405234801561001057600080fd5b50600180600073c676f75f9542f624aacbe99d0118e945b97041ab73ffffffffffffffffffffffffffffffffffffffff1673ffffffffffffffffffffffffffffffffffffffff16815260200190815260200160002060006101000a81548160ff021916908315150217905550610a668061008b6000396000f3fe608060405234801561001057600080fd5b50600436106100415760003560e01c806310b40f85146100465780637c26192914610062578063f641090c14610092575b600080fd5b610060600480360381019061005b91906106ce565b6100ae565b005b61007c60048036038101906100779190610746565b61022b565b6040516100899190610817565b60405180910390f35b6100ac60048036038101906100a791906106ce565b610355565b005b60011515600160003373ffffffffffffffffffffffffffffffffffffffff1673ffffffffffffffffffffffffffffffffffffffff16815260200190815260200160002060009054906101000a900460ff16151514610141576040517f08c379a000000000000000000000000000000000000000000000000000000000815260040161013890610885565b60405180910390fd5b816001151560008260405161015691906108e1565b908152602001604051809103902060010160009054906101000a900460ff161515146101b7576040517f08c379a00000000000000000000000000000000000000000000000000000000081526004016101ae90610944565b60405180910390fd5b816000846040516101c891906108e1565b908152602001604051809103902060000190805190602001906101ec9291906104d1565b50600080846040516101fe91906108e1565b908152602001604051809103902060010160006101000a81548160ff021916908315150217905550505050565b6060816001151560008260405161024291906108e1565b908152602001604051809103902060010160009054906101000a900460ff161515146102a3576040517f08c379a000000000000000000000000000000000000000000000000000000000815260040161029a90610944565b60405180910390fd5b6000836040516102b391906108e1565b908152602001604051809103902060000180546102cf90610993565b80601f01602080910402602001604051908101604052809291908181526020018280546102fb90610993565b80156103485780601f1061031d57610100808354040283529160200191610348565b820191906000526020600020905b81548152906001019060200180831161032b57829003601f168201915b5050505050915050919050565b60011515600160003373ffffffffffffffffffffffffffffffffffffffff1673ffffffffffffffffffffffffffffffffffffffff16815260200190815260200160002060009054906101000a900460ff161515146103e8576040517f08c379a00000000000000000000000000000000000000000000000000000000081526004016103df90610885565b60405180910390fd5b600115156000836040516103fc91906108e1565b908152602001604051809103902060010160009054906101000a900460ff1615150361045d576040517f08c379a000000000000000000000000000000000000000000000000000000000815260040161045490610a10565b60405180910390fd5b8060008360405161046e91906108e1565b908152602001604051809103902060000190805190602001906104929291906104d1565b5060016000836040516104a591906108e1565b908152602001604051809103902060010160006101000a81548160ff0219169083151502179055505050565b8280546104dd90610993565b90600052602060002090601f0160209004810192826104ff5760008555610546565b82601f1061051857805160ff1916838001178555610546565b82800160010185558215610546579182015b8281111561054557825182559160200191906001019061052a565b5b5090506105539190610557565b5090565b5b80821115610570576000816000905550600101610558565b5090565b6000604051905090565b600080fd5b600080fd5b600080fd5b600080fd5b6000601f19601f8301169050919050565b7f4e487b7100000000000000000000000000000000000000000000000000000000600052604160045260246000fd5b6105db82610592565b810181811067ffffffffffffffff821117156105fa576105f96105a3565b5b80604052505050565b600061060d610574565b905061061982826105d2565b919050565b600067ffffffffffffffff821115610639576106386105a3565b5b61064282610592565b9050602081019050919050565b82818337600083830152505050565b600061067161066c8461061e565b610603565b90508281526020810184848401111561068d5761068c61058d565b5b61069884828561064f565b509392505050565b600082601f8301126106b5576106b4610588565b5b81356106c584826020860161065e565b91505092915050565b600080604083850312156106e5576106e461057e565b5b600083013567ffffffffffffffff81111561070357610702610583565b5b61070f858286016106a0565b925050602083013567ffffffffffffffff8111156107305761072f610583565b5b61073c858286016106a0565b9150509250929050565b60006020828403121561075c5761075b61057e565b5b600082013567ffffffffffffffff81111561077a57610779610583565b5b610786848285016106a0565b91505092915050565b600081519050919050565b600082825260208201905092915050565b60005b838110156107c95780820151818401526020810190506107ae565b838111156107d8576000848401525b50505050565b60006107e98261078f565b6107f3818561079a565b93506108038185602086016107ab565b61080c81610592565b840191505092915050565b6000602082019050818103600083015261083181846107de565b905092915050565b7f5065726d697373696f6e2044656e696564000000000000000000000000000000600082015250565b600061086f60118361079a565b915061087a82610839565b602082019050919050565b6000602082019050818103600083015261089e81610862565b9050919050565b600081905092915050565b60006108bb8261078f565b6108c581856108a5565b93506108d58185602086016107ab565b80840191505092915050565b60006108ed82846108b0565b915081905092915050565b7f436572746966696361746520646f6573206e6f74206578697374000000000000600082015250565b600061092e601a8361079a565b9150610939826108f8565b602082019050919050565b6000602082019050818103600083015261095d81610921565b9050919050565b7f4e487b7100000000000000000000000000000000000000000000000000000000600052602260045260246000fd5b600060028204905060018216806109ab57607f821691505b6020821081036109be576109bd610964565b5b50919050565b7f54686520636572746966696361746520616c7265616479206578697374730000600082015250565b60006109fa601e8361079a565b9150610a05826109c4565b602082019050919050565b60006020820190508181036000830152610a29816109ed565b905091905056fea264697066735822122096b21f00971a545f9a2f4001cb5ec453bf6f9146919b64aaeafc772a5641d97e64736f6c634300080d0033",
  "immutableReferences": {},
  "source": "// SPDX-License-Identifier: MIT\npragma solidity >=0.7.0 <0.9.0;\n\ncontract Au_CA{\n\n    struct Cert{\n        string cert_hash;\n        bool exist; // \n    }\n\n    //\n    mapping (string => Cert) certs;\n\n    //CA\n    mapping (address => bool) accounts;\n\n    constructor(){\n        accounts[0xC676f75f9542f624AACbE99D0118e945B97041AB] = true;\n    }\n\n    //CA\n    modifier onlyCA(){\n        require(accounts[msg.sender] == true, \"Permission Denied\");\n        _;\n    }\n\n    //\n    modifier certExist(string memory id){\n        require(certs[id].exist == true, \"Certificate does not exist\");\n        _;\n    }\n\n    function store(string memory id, string memory cert_hash) public onlyCA {\n        require(certs[id].exist != true, \"The certificate already exists\");\n        certs[id].cert_hash = cert_hash;\n        certs[id].exist = true;\n    }\n\n    function query(string memory id) public view certExist(id) returns(string memory){\n        return certs[id].cert_hash;\n    }\n\n    function revoke(string memory id, string memory cert_hash) public onlyCA certExist(id){\n        certs[id].cert_hash = cert_hash;\n        certs[id].exist = false;\n    }\n}",
  "sourcePath": "/home/lnjoy/cablockchain/contract/contracts/Au_CA.sol",
  "compiler": {
    "name": "solc",
    "version": "0.8.13+commit.abaa5c0e.Emscripten.clang"
  },
  "schemaVersion": "3.4.7",
  "updatedAt": "2022-08-14T12:21:25.248Z",
  "networkType": "ethereum",
  "devdoc": {
    "kind": "dev",
    "methods": {},
    "version": 1
  },
  "userdoc": {
    "kind": "user",
    "methods": {},
    "version": 1
  }
}