{
  "contractName": "Id_CA",
  "abi": [
    {
      "inputs": [],
      "stateMutability": "nonpayable",
      "type": "constructor"
    },
    {
      "inputs": [
        {
          "internalType": "address",
          "name": "addr",
          "type": "address"
        },
        {
          "internalType": "string",
          "name": "cert_hash",
          "type": "string"
        }
      ],
      "name": "store",
      "outputs": [],
      "stateMutability": "nonpayable",
      "type": "function"
    },
    {
      "inputs": [
        {
          "internalType": "address",
          "name": "addr",
          "type": "address"
        }
      ],
      "name": "query",
      "outputs": [
        {
          "internalType": "string",
          "name": "",
          "type": "string"
        }
      ],
      "stateMutability": "view",
      "type": "function",
      "constant": true
    },
    {
      "inputs": [
        {
          "internalType": "address",
          "name": "addr",
          "type": "address"
        },
        {
          "internalType": "string",
          "name": "cert_hash",
          "type": "string"
        }
      ],
      "name": "revoke",
      "outputs": [],
      "stateMutability": "nonpayable",
      "type": "function"
    }
  ],
  "bytecode": "0x608060405234801561001057600080fd5b50600180600073c676f75f9542f624aacbe99d0118e945b97041ab73ffffffffffffffffffffffffffffffffffffffff1673ffffffffffffffffffffffffffffffffffffffff16815260200190815260200160002060006101000a81548160ff021916908315150217905550610b3a8061008b6000396000f3fe608060405234801561001057600080fd5b50600436106100415760003560e01c8063845c03c114610046578063afd0224b14610062578063d4fc9fc61461007e575b600080fd5b610060600480360381019061005b919061082d565b6100ae565b005b61007c6004803603810190610077919061082d565b61028a565b005b61009860048036038101906100939190610889565b610468565b6040516100a5919061093e565b60405180910390f35b60011515600160003373ffffffffffffffffffffffffffffffffffffffff1673ffffffffffffffffffffffffffffffffffffffff16815260200190815260200160002060009054906101000a900460ff16151514610141576040517f08c379a0000000000000000000000000000000000000000000000000000000008152600401610138906109ac565b60405180910390fd5b600115156000808473ffffffffffffffffffffffffffffffffffffffff1673ffffffffffffffffffffffffffffffffffffffff16815260200190815260200160002060010160009054906101000a900460ff161515036101d6576040517f08c379a00000000000000000000000000000000000000000000000000000000081526004016101cd90610a18565b60405180910390fd5b806000808473ffffffffffffffffffffffffffffffffffffffff1673ffffffffffffffffffffffffffffffffffffffff168152602001908152602001600020600001908051906020019061022b9291906105d2565b5060016000808473ffffffffffffffffffffffffffffffffffffffff1673ffffffffffffffffffffffffffffffffffffffff16815260200190815260200160002060010160006101000a81548160ff0219169083151502179055505050565b60011515600160003373ffffffffffffffffffffffffffffffffffffffff1673ffffffffffffffffffffffffffffffffffffffff16815260200190815260200160002060009054906101000a900460ff1615151461031d576040517f08c379a0000000000000000000000000000000000000000000000000000000008152600401610314906109ac565b60405180910390fd5b81600115156000808373ffffffffffffffffffffffffffffffffffffffff1673ffffffffffffffffffffffffffffffffffffffff16815260200190815260200160002060010160009054906101000a900460ff161515146103b3576040517f08c379a00000000000000000000000000000000000000000000000000000000081526004016103aa90610a84565b60405180910390fd5b816000808573ffffffffffffffffffffffffffffffffffffffff1673ffffffffffffffffffffffffffffffffffffffff16815260200190815260200160002060000190805190602001906104089291906105d2565b5060008060008573ffffffffffffffffffffffffffffffffffffffff1673ffffffffffffffffffffffffffffffffffffffff16815260200190815260200160002060010160006101000a81548160ff021916908315150217905550505050565b606081600115156000808373ffffffffffffffffffffffffffffffffffffffff1673ffffffffffffffffffffffffffffffffffffffff16815260200190815260200160002060010160009054906101000a900460ff16151514610500576040517f08c379a00000000000000000000000000000000000000000000000000000000081526004016104f790610a84565b60405180910390fd5b6000808473ffffffffffffffffffffffffffffffffffffffff1673ffffffffffffffffffffffffffffffffffffffff168152602001908152602001600020600001805461054c90610ad3565b80601f016020809104026020016040519081016040528092919081815260200182805461057890610ad3565b80156105c55780601f1061059a576101008083540402835291602001916105c5565b820191906000526020600020905b8154815290600101906020018083116105a857829003601f168201915b5050505050915050919050565b8280546105de90610ad3565b90600052602060002090601f0160209004810192826106005760008555610647565b82601f1061061957805160ff1916838001178555610647565b82800160010185558215610647579182015b8281111561064657825182559160200191906001019061062b565b5b5090506106549190610658565b5090565b5b80821115610671576000816000905550600101610659565b5090565b6000604051905090565b600080fd5b600080fd5b600073ffffffffffffffffffffffffffffffffffffffff82169050919050565b60006106b482610689565b9050919050565b6106c4816106a9565b81146106cf57600080fd5b50565b6000813590506106e1816106bb565b92915050565b600080fd5b600080fd5b6000601f19601f8301169050919050565b7f4e487b7100000000000000000000000000000000000000000000000000000000600052604160045260246000fd5b61073a826106f1565b810181811067ffffffffffffffff8211171561075957610758610702565b5b80604052505050565b600061076c610675565b90506107788282610731565b919050565b600067ffffffffffffffff82111561079857610797610702565b5b6107a1826106f1565b9050602081019050919050565b82818337600083830152505050565b60006107d06107cb8461077d565b610762565b9050828152602081018484840111156107ec576107eb6106ec565b5b6107f78482856107ae565b509392505050565b600082601f830112610814576108136106e7565b5b81356108248482602086016107bd565b91505092915050565b600080604083850312156108445761084361067f565b5b6000610852858286016106d2565b925050602083013567ffffffffffffffff81111561087357610872610684565b5b61087f858286016107ff565b9150509250929050565b60006020828403121561089f5761089e61067f565b5b60006108ad848285016106d2565b91505092915050565b600081519050919050565b600082825260208201905092915050565b60005b838110156108f05780820151818401526020810190506108d5565b838111156108ff576000848401525b50505050565b6000610910826108b6565b61091a81856108c1565b935061092a8185602086016108d2565b610933816106f1565b840191505092915050565b600060208201905081810360008301526109588184610905565b905092915050565b7f5065726d697373696f6e2044656e696564000000000000000000000000000000600082015250565b60006109966011836108c1565b91506109a182610960565b602082019050919050565b600060208201905081810360008301526109c581610989565b9050919050565b7f54686520636572746966696361746520616c7265616479206578697374730000600082015250565b6000610a02601e836108c1565b9150610a0d826109cc565b602082019050919050565b60006020820190508181036000830152610a31816109f5565b9050919050565b7f436572746966696361746520646f6573206e6f74206578697374000000000000600082015250565b6000610a6e601a836108c1565b9150610a7982610a38565b602082019050919050565b60006020820190508181036000830152610a9d81610a61565b9050919050565b7f4e487b7100000000000000000000000000000000000000000000000000000000600052602260045260246000fd5b60006002820490506001821680610aeb57607f821691505b602082108103610afe57610afd610aa4565b5b5091905056fea264697066735822122016adcf3459230f7f07a11488dfcd68eaa2c0b1c52fe8b89033438676c2581b5564736f6c634300080d0033",
  "immutableReferences": {},
  "source": "// SPDX-License-Identifier: MIT\npragma solidity >=0.7.0 <0.9.0;\n\ncontract Id_CA{\n\n    struct Cert{\n        string cert_hash;\n        bool exist; // \n    }\n\n    //\n    mapping (address => Cert) certs;\n\n    //CA\n    mapping (address => bool) accounts;\n\n    constructor(){\n        accounts[0xC676f75f9542f624AACbE99D0118e945B97041AB] = true;\n    }\n\n    //CA\n    modifier onlyCA(){\n        require(accounts[msg.sender] == true, \"Permission Denied\");\n        _;\n    }\n\n    //\n    modifier certExist(address addr){\n        require(certs[addr].exist == true, \"Certificate does not exist\");\n        _;\n    }\n\n    function store(address addr, string memory cert_hash) public onlyCA {\n        require(certs[addr].exist != true, \"The certificate already exists\");\n        certs[addr].cert_hash = cert_hash;\n        certs[addr].exist = true;\n    }\n\n    function query(address addr) public view certExist(addr) returns(string memory){\n        return certs[addr].cert_hash;\n    }\n\n    function revoke(address addr, string memory cert_hash) public onlyCA certExist(addr){\n        certs[addr].cert_hash = cert_hash;\n        certs[addr].exist = false;\n    }\n}",
  "sourcePath": "/home/lnjoy/cablockchain/contract/contracts/Id_CA.sol",
  "compiler": {
    "name": "solc",
    "version": "0.8.13+commit.abaa5c0e.Emscripten.clang"
  },
  "schemaVersion": "3.4.7",
  "updatedAt": "2022-08-14T12:21:25.242Z",
  "networkType": "ethereum",
  "devdoc": {
    "kind": "dev",
    "methods": {},
    "version": 1
  },
  "userdoc": {
    "kind": "user",
    "methods": {},
    "version": 1
  }
}